:020000040800F2
:10000000483D002045010008852C0008431D0008DC
:10001000932B0008BD1100080548000800000000EF
:100020000000000000000000000000001B3E00086F
:10003000F916000800000000093C0008853F000890
:100040005F0100085F0100085F0100085F01000810
:100050005F0100085F0100085F0100085F01000800
:100060005F0100085F0100085F0100085F010008F0
:100070005F0100085F0100085F0100085F010008E0
:100080005F0100085F0100085F0100085F010008D0
:100090005F0100085F0100085F0100085F010008C0
:1000A0005F0100085F0100085F0100085F010008B0
:1000B0005F0100085F010008014200085F010008BD
:1000C0005F0100085F0100085F0100085F01000890
:1000D0005F010008CD4300085F0100085544000897
:1000E0005F0100085F0100085F0100085F01000870
:1000F0005F0100085F0100085F0100085F01000860
:100100005F0100085F0100085F0100085F0100084F
:100110005F0100085F0100085F0100085F0100083F
:100120005F0100085F0100085F0100085F0100082F
:10013000DFF80CD000F06AFE004800475157000875
:10014000483D00200648804706480047FEE7FEE796
:10015000FEE7FEE7FEE7FEE7FEE7FEE7FEE7FEE777
:10016000B93F000831010008A0F14101192900D868
:100170002030704740EA01039B0703D009E008C91B
:10018000121F08C0042AFAD203E011F8013B00F85C
:10019000013B521EF9D27047D2B201E000F8012BA8
:1001A000491EFBD270470022F6E710B513460A46F7
:1001B00004461946FFF7F0FF204610BD421E12F814
:1001C000013F002BFBD111F8013B02F8013B002B52
:1001D000F9D1704730B505462A460B4612F8010B97
:1001E00013F8014B08B1A042F8D01CB1002802D08E
:1001F0006D1CF1E7284630BDCAB2401E10F8011F41
:100200008A4202D00029F9D100207047421C10F820
:10021000011B0029FBD1801A704710B5002200E0B5
:10022000521C835C8C5CA34201D1002BF8D1D8B264
:10023000E1B2401A10BD10B5044600E0401C03783E
:10024000002BFBD100E0401C521E04D311F8013BEF
:100250000370002BF7D100210170204610BD30B58E
:1002600005460020034600E05B1C934205D2EC5C8F
:10027000C85C201A01D1002CF6D130BD2DE9FF4F0A
:10028000087883B09946FF2805D0491C2D2804D052
:100290000024002008E000200BE00124F9E700EB37
:1002A000800003EB4000491C0B78FF2BF7D104B111
:1002B000404200230293147819461D462D2C01D08C
:1002C0002B2C04D1521C2D2C13D000240294AA46AE
:1002D0001478FF2C0FD00A25A3FB057801FB0581BC
:1002E0004FF0000C03FB0C11521CE3194AEB010107
:1002F000EEE70124EAE7814453EA010002D019F550
:10030000C87F06DA03980021C0E9001107B0BDE8F4
:10031000F08F0025AE4E2F46DFF8B882184600F069
:1003200050FDCDE90001B9F1000002DAC9F1000485
:1003300000E004460023A74A1AEB030B42EB045AE1
:1003400012E0E00707D02A4633463846414600F01F
:100350002AFA074688462A4633461046194600F0D0
:1003600022FA05460E466410002CEAD1DDE90001B0
:10037000B9F1000F5A46534606DA00F0B3FC3A468C
:10038000434600F0AFFC05E000F00DFA3A46434664
:1003900000F009FA029A0AB181F00041039AC2E919
:1003A0000001B3E72DE9FF4F1F468DB0D7E90146A5
:1003B0004FF0FF382E2045464FF000090B90B969E9
:1003C0006D1C0E988847396A824688470028F6D106
:1003D000BAF1FF3F0AD024F4D064002E11DDBAF147
:1003E0002B0F08D0BAF12D0F0BD102E0404611B00F
:1003F0008DE744F48064B9696D1C0E988847824685
:10040000761E6946600501D52D2000E02B208DF871
:10041000000001F1010B0DF1200809E0B9696D1C24
:100420000E98884782460F9844F40074761E056043
:10043000002E02DDBAF1300FF0D00B998A453ED183
:1004400044F0800406E00F99681CA9F1010944F406
:1004500000740860B9696D1C761E0E988847824644
:100460003028F0D02BE00B998A4505D1200603D423
:1004700044F08004761E18E0504604F0E5FB08B313
:100480000DF11301761E44F400748B4508D2AAF1D5
:1004900030000BF8010B200607D5A9F1010003E09D
:1004A000200602D409F101008146A00502D50F996A
:1004B000681C0860B9696D1C0E9888478246002E3A
:1004C000D1DC53E0002E51DDBAF1650F02D0BAF154
:1004D000450F4BD1A00549D5B9696D1C24F4407472
:1004E000761E0E9888478246002E0CDD2B2804D0FD
:1004F000BAF12D0F07D144F48074B9696D1C0E98C0
:1005000088478246761EE00501D52D2100E02B218B
:1005100008F8011BCDF82C8021E00DF12901761E91
:1005200044F4007488450CD2AAF1300010F0FF00AA
:1005300088F8000002D10B99884509D908F1010813
:1005400006E0E00501D5244801E042F20F70814643
:10055000B9696D1C0E98884782460F980560002E79
:1005600004DD504604F070FB0028D6D1F9690E98DE
:100570008847FF208BF8000088F8000000200690D4
:1005800007904B466A4608A906A8FFF777FEA00524
:1005900002D46FF001002AE714F0240F0AD0E0071C
:1005A00014D1DDE906123868031D3B600068C0E91C
:1005B00000120BE0DDE9060100F0F4F90146E00766
:1005C00004D13868021D3A600068016028460EE7D1
:1005D000000014400000F03FF1D8FFFF30B480EA83
:1005E000010202F0004530F0004221F0004013D03B
:1005F00090B1C30DD40DC2F31601C0F31600E41A76
:1006000041F4000140F400027D34914201D3641CA6
:1006100000E04900002C02DA30BC002070474FF4A3
:1006200000000023914201D3891A034340084FEA96
:100630004101F7D151B1914202D14FF0004105E0A3
:1006400002D24FF0010101E06FF0010103EBC45051
:10065000284430BC00F0B2BA2DE9FE4F804681EA52
:100660000300C00F0C46009021F0004123F000452C
:10067000B8EB0200A94105D24046214690461C46EF
:100680000B46024623F00040104347D0270DC7F326
:100690000A00C3F30A510290401A019040286BDA15
:1006A000C3F3130040F4801B0098924620B100234E
:1006B000D2EB030A63EB0B0B01985946C0F14002E1
:1006C000504600F0DCF906460D4650465946019A60
:1006D00000F0F4F910EB08006141002487EA1152A0
:1006E00084EAE7731A4340D0009A62B3019A012A60
:1006F0004FEA075215DC001B61EB02014FF000428C
:1007000002EA0752CDE90042001C41F58011324651
:100710002B4600F099FA03B0BDE8F08F4046214621
:10072000F9E7001B61EB0201001C41F58013001882
:100730005B412018A2F5001747EB030140EAD57092
:10074000B6196D4111E06D084FEA360645EAC075ED
:100750004FEA0752001B61EB0201001C41F58011BA
:1007600049084FEA30000019514132462B4603B088
:10077000BDE8F04F00F059BA009801224000002374
:10078000D0EB020263EBE073009821464FEAE0747D
:10079000B8EB000061EB0401E9E783F000435BE79D
:1007A00081F0004158E72DE9FE4F81EA030404F08F
:1007B000004421F0004100944FF0000B23F000436F
:1007C00050EA01045ED052EA03045BD0C3F30A543A
:1007D000C1F30A552C44A4F2F3340194A0FB025453
:1007E000C1F3130141F48011C3F3130343F48013E5
:1007F00001FB024400FB034E840A970A44EA815439
:1008000047EA8357A4FB076802958D0A05FB078515
:100810004FEA932C04FB0C542705029D4FEA06581F
:1008200047EA1637B5EB08056EEB070C870E920EFC
:1008300047EA811742EA8312A7FB0201B6EB0B01DC
:1008400064EB00042B0D43EA0C335E1844EB1C50A0
:10085000DA465146E7FB0201C5F313044FEA0B33B6
:1008600043EA14534FEA0432019C43EA0603A4F11D
:100870000C040294009CCDE900B400F0E5F903B04B
:10088000BDE8F08F00200146F9E7962300221146CB
:1008900000F09DB90EB5C10F80EAE0700844CA07A8
:1008A000002140F233438DE80E000A460B4600F06B
:1008B000CBF903B000BD20F00040C10DC0F316001D
:1008C00040F400007F2901DA00207047962903DCFC
:1008D000C1F19601C840704796398840704770B59D
:1008E000C1F30A5201F000450024C1F3130140F2A4
:1008F000FF3341F480119A4201DA002070BD40F2CA
:1009000033439A42A2F2334203DC524200F0C6F86B
:1009100000E090402C43F1D0404270BD00F0004216
:1009200030F000400AD0C10D01F56071C0F316002F
:1009300042EA0151C20840071143704700200146B6
:100940007047000030B5041E71F1000404DB4FF065
:100950000044404264EB0101141E73F1000405DB06
:100960001C464FF00043524263EB04038B4208BF26
:10097000824230BD30B5041E71F1000404DB4FF03B
:100980000044404264EB0101141E73F1000405DBD6
:100990001C464FF00043524263EB0403994208BFE8
:1009A000904230BD01F0004330B421F0004150EAE4
:1009B000010206D00A0DA2F56072C1F31301002AEC
:1009C00002DC30BC00207047440F44EAC104C1007F
:1009D000E01830BC00EBC25000F0F0B8002801DB9A
:1009E000C0F10040002901DBC1F10041884270479D
:1009F00030B50B46014600202022012409E021FAEF
:100A000002F59D4205D303FA02F5491B04FA02F5EB
:100A10002844151EA2F10102F1DC30BD2DE9F05F82
:100A20000546002092469B4688460646814640245D
:100A30001BE0284641464746224600F02FF8534621
:100A40005A46C01A914110D311461846224600F06A
:100A500016F82D1A67EB01084F46224601200021A7
:100A600000F00DF817EB00094E41201EA4F101041F
:100A7000DFDC484631462A464346BDE8F09F202A3F
:100A800004DB203A00FA02F1002070479140C2F1E5
:100A9000200320FA03F3194390407047202A04DB17
:100AA000203A21FA02F00021704721FA02F3D040E7
:100AB000C2F120029140084319467047202A06DB04
:100AC000CB17203A41FA02F043EAE07306E041FA1C
:100AD00002F3D040C2F1200291400843194670470A
:100AE000426842B1016811F8013B23B1521EC0E9CE
:100AF0000012184670470121C160881E7047426885
:100B00005AB1C368016843B983688B4205D0491E56
:100B1000521CC0E90012002070474FF0FF307047B0
:100B20000FB4002300B589B00CA900910B996FF0A8
:100B30000042CB601E4B06931E4B07930423CDE966
:100B400001321D4A089202466B460020FFF72AFC3C
:100B500009B05DF814FB70B586B006464FF0FF3063
:100B60000091CDE90101002015460C460490324663
:100B7000694604A8FFF7D4FF02460498211825B15E
:100B800008B1084600E020462860049800280DD0EF
:100B9000002A02DD0098884208D0081B0094CDE9A5
:100BA00001043246694604A8FFF7BAFF06B070BDDB
:100BB000E10A0008FF0A0008310E00080029A8BF5A
:100BC0007047401C490008BF20F00100704710B476
:100BD000B0FA80FC00FA0CF050EA010404BF10BC2B
:100BE000704749B1CCF1200421FA04F411FA0CF158
:100BF00018BF012121430843A3EB0C01CB1D4FEA91
:100C000000614FEA102042BF002010BC704700EB8B
:100C1000C35010440029A4BF10BC7047401C4900B9
:100C200008BF20F0010010BC704710B5141E73F10E
:100C3000000408DA401C41F1000192185B411A439C
:100C400001D120F0010010BD2DE9F04D92469B46E8
:100C500011B1B1FA81F202E0B0FA80F2203290468E
:100C6000FFF70DFF04460F4640EA0A0041EA0B0178
:100C700053465A46084313D0114653EA010019D08F
:100C8000C8F140025046FFF709FF05460E465046A0
:100C900059464246FFF7F3FE084305D0012004E021
:100CA00020463946BDE8F08D0020054346EAE0764F
:100CB0002C4337430A986305E40AA0EB080000229E
:100CC000FD0A44EA47540A3002D500200146E9E70C
:100CD000010510196941DDE9084500196941BDE8C0
:100CE000F04DA2E72DE9F04D81EA030404F0004B3A
:100CF00021F0004514464FF0000A23F0004150EA6D
:100D0000050220D054EA01021DD0C5F30A5702465D
:100D1000C5F31303C1F31300C1F30A5640F4801561
:100D200043F48013A7EB0608101BD64608F2FD38E3
:100D300073EB050002D308F1010801E092185B4152
:100D4000B8F1000F03DA00200146BDE8F08D002065
:100D50004FF48011064684460EE0171B73EB05071F
:100D600005D3121B63EB050306434CEA010C49084B
:100D70004FEA300092185B4150EA0107EDD152EA88
:100D8000030012D082EA040083EA0501084305D07B
:100D9000101BAB4106D20122002306E000224FF0D7
:100DA000004302E06FF0010253101AEB06004CEB17
:100DB000085110EB0A0041EB0B01BDE8F04DFFF7C5
:100DC00034BF0EB540F2334202920022CDE9002238
:100DD0001346FFF739FF03B000BDC1F30A52C1F358
:100DE000130140F2FF3341F480119A4202DA0020ED
:100DF0000146704740F233439A42A2F2334202DC8A
:100E00005242FFF74BBEFFF73ABE0000064C074DBB
:100E100006E0E06840F0010394E8070098471034CA
:100E2000AC42F6D3FFF788F9246400084464000854
:100E3000C0B24FF4F05100F001B800007F2801D992
:100E4000002208E0064A02EB5002C007127800D1E7
:100E5000120902F00F020120904008407047000084
:100E60002C63000870B58C1810F8015B15F00703AF
:100E700001D110F8013B2A1106D110F8012B03E033
:100E800010F8016B01F8016B5B1EF9D12B0705D43B
:100E90000023521E0DD401F8013BFAE710F8013B84
:100EA000CB1A921C03E013F8015B01F8015B521EA0
:100EB000F9D5A142D8D3002070BD21B1826842F09B
:100EC0000102826003E0826822F0010282607047C2
:100ED00021B1826842F48072826003E0826822F469
:100EE000807282607047014600208A6802F0040226
:100EF0000AB1012000E000207047014600208A6806
:100F000002F008020AB1012000E000207047000052
:100F100030B502460020002350680F4C20400D7968
:100F20000C6844EA05242043506090680B4C204034
:100F3000D1E902542C434D7944EA450420439060A2
:100F4000D06A20F470000C7C641EE4B2234340EAB3
:100F50000350D06230BD0000FFFEF0FFFDF7F1FF4F
:100F6000F0B504460D4600200021092D11DDE06892
:100F7000A5F10A0606EB4607072606FA07F188439D
:100F8000A5F10A0606EB460603FA06F10843E060FF
:100F90000CE0206905EB4507072606FA07F18843B0
:100FA00005EB450603FA06F108432061072A0FDA2C
:100FB000606B561E06EB86071F2606FA07F188436C
:100FC000561E06EB860605FA06F10843606322E02A
:100FD0000D2A0FDA206BD61F06EB86071F2606FAAE
:100FE00007F18843D61F06EB860605FA06F108438B
:100FF000206310E0E06AA2F10D0606EB86071F26CB
:1010000006FA07F18843A2F10D0606EB860605FAFB
:1010100006F10843E062F0BD816841F0080181609B
:10102000704721B1826842F4A002826003E08268C6
:1010300022F4A00282607047816841F0040181605F
:101040007047000008B50121042002F00BFE0320C8
:10105000ADF8000000208DF803006946014800F05B
:1010600090FD08BD0008014010B5FFF7EBFF00F050
:1010700001F810BD00B591B00121084602F0D2FD83
:101080000121480202F0EEFD364800F02DF9364805
:101090000690364807900020089002200990002012
:1010A0000A9080200B9040000C9080000D90202032
:1010B0000E9000020F900020109006A9294800F021
:1010C000B9F90121274800F003F90020019001201F
:1010D0008DF808008DF809004FF46020039000207F
:1010E000049002208DF8140001A91F484C38FFF726
:1010F0000FFF4FF4404002F089FD0523012200213B
:1011000019484C38FFF72CFF05230222012116480D
:101110004C38FFF725FF012113484C38FFF7D8FE64
:10112000012111484C38FFF7C8FE0F484C38FFF733
:1011300073FF00BF0C484C38FFF7DFFE0028F9D1E1
:1011400009484C38FFF778FF00BF07484C38FFF7D5
:10115000CAFE0028F9D1012103484C38FFF761FF8E
:1011600011B000BD080002404C240140840A002058
:101170000F48407820B10E484078401E0C49487016
:101180000C48807E401C0B4988760B48007868B17B
:101190000846807E0F2190FBF1F201FB120028B976
:1011A0000448007810B90220024908707047000016
:1011B000D60A0020282D0020CC0A002000BFFEE720
:1011C00010B5012000F004FE04463CB12C48007824
:1011D00020B92C48047001202949087064B12848BE
:1011E0000078012808DB264800781E2804DC244803
:1011F0000078401C2249087014BB21480078002860
:101200001EDD1F4800781E281ADA1E4800780128C3
:1012100004D0022806D003280CD107E01AA003F05E
:10122000C7FB08E01BA003F0C3FB04E01CA003F015
:10123000BFFB00E000BF00BF0020114908701EE0A6
:10124000ECB90F4800781E2819DB0E4800780128F9
:1012500004D0022806D003280CD107E013A003F025
:10126000A7FB08E014A003F0A3FB04E015A003F023
:101270009FFB00E000BF00BF00200149087010BDC7
:10128000D80A0020D90A00204B6579315F53686F76
:1012900072740A004B6579325F53686F72740A008A
:1012A0004B6579335F53686F72740A004B6579310F
:1012B0005F4C6F6E670A00004B6579325F4C6F6E52
:1012C000670A00004B6579335F4C6F6E670A000058
:1012D00021B1026842F00102026004E002684FF6A8
:1012E000FE731A400260704701684FF6FE721140AB
:1012F00001600021016041608160C1604B4988420A
:1013000008D14A490839496841F00F01474A083A6B
:1013100051608AE045491431884208D1434908396F
:10132000496841F0F001414A083A51607DE03F4987
:101330002831884208D13D490839496841F4706133
:101340003A4A083A516070E038493C31884208D145
:1013500036490839496841F47041344A083A5160C5
:1013600063E032495031884208D130490839496830
:1013700041F470212D4A083A516056E02B496431FE
:10138000884208D129490839496841F47001274A3F
:10139000083A516049E025497831884208D123490B
:1013A0000839496841F07061204A083A51603CE0D0
:1013B0001F49884206D1011F096841F00F01021F31
:1013C000116032E01A491431884208D11849091FC6
:1013D000096841F0F001164A121F116025E0144916
:1013E0002831884208D11249091F096841F4706107
:1013F0000F4A121F116018E00D493C31884208D194
:101400000B49091F096841F47041094A121F116014
:101410000BE007495031884207D10549091F096887
:1014200041F47021024A121F116070470800024007
:101430000804024010B50022026847F6F0739A4390
:101440000C6A8B6823430C6923434C6923438C69E2
:101450002343CC6923434C6A23438C6A23431A43B6
:101460000260CB6843600B6883604B68C36010BD4B
:1014700008B50121042002F0F5FB1020ADF80000B2
:101480008DF8030003208DF802006946014800F042
:1014900078FB08BD000801402DE9FC5F064600F01E
:1014A00057F8002404E0305D00F0F8F8601CC4B286
:1014B000082CF8DB442000F0F1F800F049F8002493
:1014C00004E0305D00F0EAF8601CC4B2082CF8DBE0
:1014D000BE2000F0E3F800F0ABF8834600F0A8F877
:1014E00081464FEA092005B245EA0B05002D0EDAC8
:1014F000E843401CFFF7CEF9074600220C4BFFF7EC
:1015000052F9CDE90001FFF74DFA82460CE028467A
:10151000FFF7C0F907460022054BFFF744F9CDE974
:101520000001FFF73FFA82465046BDE8FC9F0000ED
:101530000000B03F10B5FFF79BFF1021034800F0FB
:10154000FEFB00F095F800F02BF810BD00080140FC
:1015500010B500F08DF800F023F8552000F09EF84B
:1015600010BD000008B51020ADF8000048208DF82F
:1015700003006946014800F004FB08BD0008014073
:1015800008B51020ADF800008DF8030003208DF899
:1015900002006946014800F0F4FA08BD0008014065
:1015A00010B50024FFF7DEFF04E0601CC4B2012088
:1015B00004F046F810210F4800F0B6FB08B1642C87
:1015C000F3DB642C01DB012010BD002404E0601C6F
:1015D000C4B2012004F034F81021064800F0A4FB46
:1015E00008B9F02CF3DBF02C01DB0120ECE7002044
:1015F000EAE700000008014010B5FFF7C1FF102125
:101600000A4800F09AFB0A2004F01AF8FFF7AAFF34
:101610001021064800F088FB012801D1012400E0D8
:1016200000242D2004F00CF8204610BD00080140D5
:1016300070B50026002408E0FFF7DEFF054605FA36
:1016400004F03043C6B2601CC4B2082CF4DB304650
:1016500070BD70B50546332000F020F8002404E08A
:10166000FFF7E6FF2855601CC4B2082CF8DB70BDFC
:1016700010B5FFF785FF1021074800F05EFB40F230
:10168000EE2003F0DDFF1021034800F058FB0F208F
:1016900003F0D6FF10BD00000008014070B50446FD
:1016A000FFF76EFF002522E004F00106641076B11A
:1016B0001021104800F041FB082003F0C1FF102169
:1016C0000C4800F03CFB3A2003F0BAFF0DE010217B
:1016D000084800F032FB462003F0B2FF1021054815
:1016E00000F02DFB022003F0ABFF681CC5B2082DF3
:1016F000DADB70BD000801407047000010B54FF400
:1017000080710348FEF74FFD00200249088010BD9C
:1017100026240020B20A002070B50546002400BF30
:1017200000F054F980B90DA10E48FEF753FD0446B0
:1017300054B13A212046FEF75FFD044614B1641C03
:10174000204670BD0020FCE7052003F053FF281E53
:10175000A5F101018DB2E3D100BFF2E74950442C5D
:10176000000000002624002000B5A1B0FA2003F0FC
:1017700041FFFFF7C3FF32A003F01AF903E04FF473
:10178000967003F037FFC8222FA130A000F0D4F8E4
:101790000028F4D12FA003F00BF903E04FF496706A
:1017A00003F028FFC82228A12DA000F0C5F80028CA
:1017B000F4D12FA003F0FCF803E04FF4967003F08F
:1017C00019FFC82220A12DA000F0B6F80028F4D1FE
:1017D0002EA003F0EDF8802101A8FEF7E4FC2DA374
:1017E0002FA230A101A803F0F3F803E04FF49670A4
:1017F00003F000FFC82231A101A800F09DF80028E5
:10180000F4D130A003F0D4F8802101A8FEF7CBFC7E
:1018100040F25B732EA23AA101A803F0D9F803E0CD
:101820004FF4FA7003F0E6FEC8223CA101A800F0D4
:1018300083F80028F4D13BA003F0BAF821B000BD32
:1018400041540D0A000000004F4B000041540D0AA6
:101850000D00000043574D4F44450D0A00000000A5
:1018600041542B43574D4F44453D310D0A00000074
:1018700041542B4357444843500D0A0041542B43D5
:1018800057444843503D312C310D0A0043574A41DB
:10189000500D0A003132333435363738000000003D
:1018A0004E45540041542B43574A41503D22257325
:1018B000222C222573220D0A00000000474F5420DD
:1018C0004950000043495053544152540D0A0000FE
:1018D000696F742D30367A30306178646867666B72
:1018E00032346E2E6D7174742E696F746875622E49
:1018F000616C6979756E63732E636F6D0000000013
:1019000041542B43495053544152543D2254435067
:10191000222C222573222C25640D0A00434F4E4EA3
:10192000454354004553503832363620496E697469
:10193000204F4B0D0A0000002DE9F04105460E46F0
:1019400014462846FEF762FC87B23946284603F063
:1019500001F80FE000F03AF848B931460948FEF7BF
:1019600039FC20B1FFF7CAFE0020BDE8F0810A2053
:1019700003F040FE201EA4F101018CB2EAD1012047
:10198000F3E700002624002030B589B005460C4658
:10199000FFF7B4FE224608A101A803F019F8C822F7
:1019A00009A101A8FFF7C8FF18B92146284602F08F
:1019B000D1FF09B030BD000041542B43495053457D
:1019C0004E443D25640D0A003E0000000A48008890
:1019D00008B90120704708480088084909888842EA
:1019E00003D1002004490880F4E703480088034934
:1019F00008800120EEE70000B20A0020B40A0020AF
:101A0000044900E0521C11F8013B002BFAD15008A8
:101A100070470000D809002010B50446062C22D2D9
:101A2000DFE804F003080D12171C0121084602F03C
:101A300009F918E00121022002F004F913E0012164
:101A4000042002F0FFF80EE00121082002F0FAF86D
:101A500009E00121102002F0F5F804E00121202026
:101A600002F0F0F800BF00BF10BD70B504460D468F
:101A700016462046FFF7D0FF32462946204600F0A2
:101A80005AF8204600F001F870BD3EB504462046E5
:101A900002F092FC0546062C33D2DFE804F0030B7B
:101AA000131B232A4FF47A70ADF804004820ADF8D8
:101AB000000026E040F2E730ADF804004720ADF822
:101AC00000001EE04FF47A70ADF804004820ADF835
:101AD000000016E040F2E630ADF804004620ADF814
:101AE00000000EE05920ADF804004F20ADF80000D2
:101AF00007E040F2E730ADF804004720ADF8000001
:101B000000BF00BF0020ADF80600ADF802008DF860
:101B100008006946284602F0FDFB0121284602F034
:101B2000CDFB01221146284602F0EBFB002128469E
:101B300002F0CAFB3EBDF8B506460C4615464FF40A
:101B4000A06001F0D9F826B1012E06D0022E0CD1EA
:101B500007E01C208DF8000007E01D208DF8000034
:101B600003E01E208DF8000000BF00BF8DF801408B
:101B70008DF8025001208DF80300684601F084F8CA
:101B8000F8BD2DE9F0410246002500260020002383
:101B90000024002791F803C00CF00F0591F803C052
:101BA0000CF0100CBCF1000F03D091F802C04CEA0D
:101BB000050591F800C0BCF1000F31D01468002079
:101BC0002BE04FF0010C0CFA00F3B1F800C00CEA66
:101BD00003069E4220D183004FF00F0C0CFA03F74E
:101BE000BC4305FA03FC4CEA040491F803C0BCF1C1
:101BF000280F06D14FF0010C0CFA00FCC2F814C0FB
:101C00000AE091F803C0BCF1480F05D14FF0010C78
:101C10000CFA00FCC2F810C0401C0828D1D3146094
:101C2000B1F800C0BCF1FF0F34DD546800202EE095
:101C300000F1080C4FF0010808FA0CF3B1F800C0ED
:101C40000CEA03069E4221D183004FF00F0C0CFAE0
:101C500003F7BC4305FA03FC4CEA040491F803C003
:101C6000BCF1280F05D100F1080C08FA0CF8C2F8F5
:101C7000148091F803C0BCF1480F07D100F1080CA3
:101C80004FF0010808FA0CF8C2F81080401C082830
:101C9000CED35460BDE8F081F0B50A46002300249D
:101CA0000021002500F00046B6F1004F02D11D4E84
:101CB000F16901E01B4E7168C0F3034583B200F483
:101CC0004016B6F5401F08D121F07061154E7668B8
:101CD00026F07066134F7E6012E000F48016B6F5B1
:101CE000801F06D1032606FA05F4A14341F0706176
:101CF00006E0460D360103FA06F6B14341F0706185
:101D000022B1460D360103FA06F6314300F00046D3
:101D1000B6F1004F02D1034EF16101E0014E716056
:101D2000F0BD0000000001400246002093680B4017
:101D30000BB1012000E00020704741617047016154
:101D4000704700BFFEE7000010B54FF4A06000F040
:101D5000D3FFFFF755FE1A49086003F029FC012262
:101D600000210220FFF781FE4FF4E13002F04CFD2C
:101D70004FF4E13002F098FD02F04EF900F04EF819
:101D800001F0EAFFFFF770F900F064F8FFF7D2FB0B
:101D90000C48FFF75EFC01F07DF8002001F035F8FB
:101DA000002001F040F802E0052003F023FC064982
:101DB000064802F02BF80128F6D101F021F810BDF9
:101DC000780A00208C0A0020D60A0020D00A0020C1
:101DD00010B5044614B101200E4908700D48007872
:101DE00070B101210C48FFF79FFF48B90020094955
:101DF000087001210848FFF797FF48B9012010BD7E
:101E000001210548FFF790FF012801D10149087021
:101E10000020F4E7240000200008014008B501215B
:101E2000142001F01FFF4FF40050ADF80000102007
:101E30008DF8030003208DF8020069460348FFF780
:101E4000A0FE00200249086008BD0000001001400B
:101E5000B401224208B50121042001F003FF08204B
:101E6000ADF8000048208DF8030069460148FFF7EF
:101E700088FE08BD0008014010B50446207B0128FB
:101E800002D1206802F0B8FD002020606060A060F0
:101E9000207310BD0246002301230DE002F07F00F5
:101EA0000870D2092AB1087840F080000870491CF7
:101EB00001E0184670475B1C042BEFDD4FF0FF304C
:101EC000F8E7000070B5C0B004464FF48071684672
:101ED000FEF769F943A0008820804FF480716846BE
:101EE000FEF761F940498868FEF718FD05462A4665
:101EF0000B463EA1684602F06BFD69462046FEF7A0
:101F00005DF94FF480716846FEF74DF908213B48B2
:101F1000FFF70AFF05462A4639A1684602F058FD38
:101F200069462046FEF74AF94FF480716846FEF78D
:101F30003AF92D48028B36A1684602F049FD694600
:101F40002046FEF73BF94FF480716846FEF72BF907
:101F50003248028832A1684602F03AFD69462046BE
:101F6000FEF72CF94FF480716846FEF71CF91E4805
:101F7000C28A2FA1684602F02BFD69462046FEF773
:101F80001DF94FF480716846FEF70DF92348428829
:101F90002BA1684602F01CFD69462046FEF70EF9AB
:101FA0004FF480716846FEF7FEF80F48027D28A1C5
:101FB000684602F00DFD69462046FEF7FFF84FF433
:101FC00080716846FEF7EFF825A1684602F000FD33
:101FD00069462046FEF7F2F82046FEF717F9C0B230
:101FE00040B070BD7B000000282D00202274656D7C
:101FF00070223A22252E3166222C00000008014072
:10200000227761746572223A222564222C00000036
:10201000227068223A222564222C0000D00A002077
:102020002270685F76223A222564222C000000008C
:10203000226D715F33223A222564222C00000000B9
:10204000226D715F335F76223A222564222C0000D4
:1020500022666C616765223A222564220000000036
:102060007D00000070B504460E460025206898B932
:1020700001202073304602F0EDFC20602068E0B1C2
:1020800000206060A66003E00020216848556D1CB8
:10209000A068A842F8D810E00220207303E00020D6
:1020A000216848556D1CA068A842F8D800206060DF
:1020B000A068B04201D20020206070BD2DE9FF5F12
:1020C00007460D4690463846FEF7A0F886B22846E9
:1020D000FEF79CF81FFA80FA4FF00009B01D02F0DD
:1020E000B9FC04461CB9012004B0BDE8F09FB11D45
:1020F0002046FEF758F812A0016821608088A08071
:10210000324639462046FEF796F82846FEF77EF816
:1021100083460120002100915B462A46CDE9020852
:10212000019121460A2000F05FF910B94FF0000933
:1021300001E04FF00109204602F05EFC4846D3E77B
:1021400024637273702F00002DE9FF4F83B0824625
:102150008B469146159C0025002002900F27019088
:102160004846FEF753F80FFA80F8B9F1000F03D193
:10217000012007B0BDE8F08F08F10200384487B2B3
:10218000109808B145F00205129878B145F00405A1
:102190001298FEF73BF8C0B202901398FEF736F89B
:1021A00001460298001D0844384487B2119820B1B6
:1021B000012804D0022808D104E000BF07E045F060
:1021C0000C0504E045F0140501E00220D1E700BF52
:1021D000149808B145F02405BAF1000F02D0BBF104
:1021E000000F01D10320C4E745F0C0055046FEF7BB
:1021F0000DF806465846FEF709F83044001D3844ED
:1022000087B239462046FFF72DFF206808B9042021
:10221000AFE739462068FDF7C6FF10216268501C01
:10222000606020688154D4E90023D118781FFFF73B
:1022300031FE00B201900198002804DA2046FFF731
:102240001BFE052095E76168019808446060002145
:102250006268501C60602068815404216268501CD0
:102260006060206881544D216268501C6060206865
:10227000815451216268501C60602068815454214F
:102280006268501C6060206881546268501C606005
:102290002068815404216268501C60602068815469
:1022A0006168481C6060206845540698010A6268AD
:1022B000501C6060206881540698C1B26268501C4E
:1022C000606020688154C8F307216268501C606018
:1022D000206881546268501C6060206800F80280A9
:1022E000D4E90012881842464946FDF7A4FF606809
:1022F0004044606005F00400B8B30026139808B9A4
:1023000038A013901298FDF781FF86B2310A6268F7
:10231000501C6060206881546268501C60602068B6
:102320008654D4E90012881832461299FDF783FFCB
:102330006068304460601398FDF768FF86B2310A28
:102340006268501C6060206881546268501C606044
:1023500020688654D4E90012881832461399FDF794
:102360006AFF60683044606000BF05F08000C8B15B
:102370005046FDF74BFF86B2310A6268501C606020
:10238000206881546268501C606020688654D4E9DB
:102390000012881832465146FDF74DFF6068304400
:1023A000606000BF05F04000C8B15846FDF72EFF41
:1023B00086B2310A6268501C60602068815462688D
:1023C000501C606020688654D4E900128818324698
:1023D0005946FDF730FF60683044606000BF002060
:1023E000C7E60000000000002DE9FF4F83B08346E0
:1023F00090469946139C00260025002002900190EB
:102400000027BBF1000F03D1012007B0BDE8F08F1A
:1024100000250AE00498405D232803D00498405D1D
:102420002B2801D10220F0E76D1C0498405D0028A4
:10243000F0D147F03007119808B147F0010705EBDC
:102440000900861C109820B1012804D002280AD166
:1024500005E000BF09E047F00207B61C05E047F0C1
:102460000407B61C01E00320CFE700BF98F8000086
:10247000022822D14FF0000A00BF50460AF1010A9B
:1024800018F800007D28F8D1AAF1030A0AF1070024
:1024900002900298A9EB000AF01CA0EB0A0120466A
:1024A000FFF7E0FD206808B90420AEE7F21CA2EBBC
:1024B0000A012068FDF777FE0BE0F11C2046FFF7CC
:1024C000D1FD206808B904209FE7F11C2068FDF7C2
:1024D0006AFE6168481C606020684754D4E90002C5
:1024E00081183046FFF7D6FC01900198002804DAE5
:1024F0002046FFF7C1FC052087E761680198084482
:102500006060C5F307216268501C606020688154D8
:102510006268501C606020688554D4E900128818F5
:102520002A460499FDF787FE606828446060109889
:1025300060B14FEA1B216268501C606020688154C2
:102540006268501C6060206800F802B0B8F1000FAB
:1025500019D098F8000002280BD1D4E9001288188D
:102560004146029AFDF706FE6168029808446060E1
:1025700009E0D4E9001288184A464146FDF7FAFD01
:1025800060684844606000203FE770B505460C462F
:1025900004212046FFF766FD206808B9012070BDC0
:1025A00040216268501C606020688154022162688A
:1025B000501C60602068815429126268501C606061
:1025C000206881546268501C606020688554002037
:1025D000E5E770B505460C4604212046FFF742FDAD
:1025E000206808B9012070BD70216268501C6060CD
:1025F0002068815402216268501C60602068815408
:1026000029126268501C6060206881546268501C06
:102610006060206885540020E5E770B505460C46EB
:1026200004212046FFF71EFD206808B9012070BD77
:1026300050216268501C60602068815402216268E9
:10264000501C60602068815429126268501C6060D0
:10265000206881546268501C6060206885540020A6
:10266000E5E770B505460C4604212046FFF7FAFC65
:10267000206808B9012070BD62216268501C60604A
:102680002068815402216268501C60602068815477
:1026900029126268501C6060206881546268501C76
:1026A0006060206885540020E5E72DE9FF5F8046E3
:1026B000174699460E9C0026B246B3460025B8F14F
:1026C000000F03D1012004B0BDE8F09F0BE057F8E4
:1026D000250008B90220F6E757F82500FDF796FD1A
:1026E0000644681CC5B24D45F1DB09EB4900801C6E
:1026F00000EB060A0AF105012046FFF7B3FC20684B
:1027000008B90320DFE782216268501C60602068FE
:102710008154D4E9000281185046FFF7BBFB0FFA41
:1027200080FBBBF1000F04DA2046FFF7A5FB042075
:10273000C9E76068584460604FEA18216268501C1D
:102740006060206881546268501C6060206800F8F6
:102750000280002524E057F82500FDF757FD0646C6
:10276000C6F307216268501C60602068815462686B
:10277000501C606020688654D4E90023D01857F8B4
:1027800025103246FDF757FD6068304460600198BF
:10279000C1B26268501C606020688154681CC5B278
:1027A0004D45D8DB00208EE7F0B504460D462646A1
:1027B000012300201060002114E0775C07F07F0700
:1027C000106807FB03001060705C00F0800008B91F
:1027D000481CF0BDDB01B3F5001F02D36FF0010010
:1027E000F7E7491CA942E8DB4FF0FF30F1E72DE99C
:1027F000F84380460C4615461E462F2108F1060078
:10280000FDF7FAFC07460020009017B90120BDE84B
:10281000F8837F1C6A46042108F10100FFF7C4FF1A
:10282000252002F017F92060206808B90220EEE7A1
:1028300025212068FDF7B7FC242239462068FDF7E2
:1028400099FC243700982C3830803188481C02F0DD
:1028500001F92860286820B9206802F0CDF803202B
:10286000D5E73288511C2868FDF79DFC328839462F
:102870002868FDF77FFC0020C9E701464878022858
:1028800001D001207047887810B18878012801D1E3
:10289000C878F7E7FF20F5E72DE9FC5F81460D4694
:1028A00014461E46DDE90C8B99F8000000F00F0A73
:1028B000002001900AF008000090CAF341008BF854
:1028C000000001AA042109F10100FFF76DFF48444F
:1028D000471C0198022802D30AF0010010B1FF2022
:1028E000BDE8FC9F7878397840EA01202080208874
:1028F000801C0199884201D9FF20F1E754A1B81C3E
:10290000FDF768FC08B10F20EAE79BF8000020B152
:1029100001283DD0022877D13BE0009808B1FF2084
:10292000DEE72188481C02F095F82860286808B97D
:10293000FF20D5E72288511C2868FDF734FC228847
:10294000B91C2868FDF716FC0198801E2188401AE2
:10295000A8F80000B8F80010481C02F07BF83060BE
:10296000306820B9286802F047F8FF20B8E7B8F8C7
:102970000020511C3068FDF716FCB8F80020B4F8B0
:1029800000C0BB1C0CEB03013068FDF7F3FB4FE00C
:1029900000BF2088801C0199884201D9FF209FE751
:1029A0002088C01C395C2088801C385C41EA0021EA
:1029B0000E9801800E9808B9FF2091E72188481CE5
:1029C00002F048F82860286808B9FF2088E72288C4
:1029D000511C2868FDF7E7FB2288B91C2868FDF721
:1029E000C9FB0198001F2188401AA8F80000B8F818
:1029F0000010481C02F02EF83060306828B92868B2
:102A000001F0FAFFFF206BE710E0B8F80020511C3E
:102A10003068FDF7C8FBB8F80020B4F800C03B1DD3
:102A20000CEB03013068FDF7A5FB01E0FF2057E741
:102A300000BF2B212846FDF7DFFB20B923212846C4
:102A4000FDF7DAFB08B1FF204AE7002048E7000065
:102A5000246372657100000001464878022801D0A5
:102A600001207047887820B9C8780A2801D1002051
:102A7000F7E70120F5E701464878022801D0012058
:102A80007047887820B9C8780A2801D10020F7E774
:102A90000120F5E701464878022801D0012070475F
:102AA000887820B9C8780A2801D10020F7E70120EA
:102AB000F5E702465078022801D00120704790784F
:102AC000B0EB112F05D1D078CBB2984201D10020C4
:102AD000F4E70120F2E70000F8B50446FF2720786C
:102AE0000511012D01DB0E2D01DD3846F8BD032D4A
:102AF00024D1002000906A460421601CFFF754FE98
:102B00002044461C0098022803D3207800F00100DE
:102B100008B1FF20EAE77078317840EA0120801C94
:102B20000099884201D9FF20E0E706A1B01CFDF71B
:102B300051FB08B10F2700E0032700E02F4638467D
:102B4000D4E7000024637265710000000146FF2095
:102B50008A78A2B9CA78142A11D10A7932B1012A25
:102B600005D0022A04D0802A06D103E000BF00BFAE
:102B7000002003E0012001E0022000BF00BF7047F9
:102B8000014601208A781AB9CA781E2A00D100208D
:102B9000704700BFFEE700000020034909880A22B1
:102BA00091FBF2F188B27047840A002010B5A0B002
:102BB000044680216846FDF7F6FA11A000882080BF
:102BC00080216846FDF7EFFA01220EA1684601F068
:102BD000FFFE69462046FDF7F1FA80216846FDF7C1
:102BE000E2FA0DA1684601F0F3FE69462046FDF7C2
:102BF000E5FA2046FDF70AFBC0B220B010BD000088
:102C00007B00000022636865636B5F6465766963BF
:102C100065223A22256422007D00000010B5A0B094
:102C2000044680216846FDF7BEFA11A00088208086
:102C300080216846FDF7B7FA01220EA1684601F02F
:102C4000C7FE69462046FDF7B9FA80216846FDF7C0
:102C5000AAFA0BA1684601F0BBFE69462046FDF7C3
:102C6000ADFA2046FDF7D2FAC0B220B010BD000088
:102C70007B0000002274696D65223A2225642200DF
:102C80007D0000007047000070B5002100230F2276
:102C9000C47804B3154C246804F4E064C4F5E0641B
:102CA000210AC1F10403CA40447804FA03F184788C
:102CB0001440214309010E4C0678A155047804F014
:102CC0001F050124AC4005786D11AD0005F1E0252C
:102CD000C5F8004109E0047804F01F050124AC4068
:102CE000044D0678761145F8264070BD0CED00E0E5
:102CF00000E400E080E100E002490143024A116083
:102D0000704700000000FA050CED00E010B500F07F
:102D100077F821A1244801F05BFE234A00210846F0
:102D200000F046F921A222A11F4801F051FE1E4ADF
:102D30000221002000F03CF922A225A11A4801F04E
:102D400047FE194A0421002000F032F925A1164857
:102D500001F03EFE144A0621002000F029F9FEF79A
:102D600003FD03E04FF4967002F044FC00F014FA07
:102D70000028F7D103E04FF4967002F03BFC0121EC
:102D80001D4800F071FE0028F5D13C201B49087059
:102D900000F036F810BD00002DC7EBB4F2BFAA5703
:102DA000494649C8C8B5E3002C1300204E455400DD
:102DB0002DC3FBB3C63A25732020202020202020DD
:102DC000200000003132333435363738000000003F
:102DD0002DC3DCC2EB3A25732020202020202020A8
:102DE000200000002DC6B5C2CA3A20322E3420473A
:102DF000487A2020200000000C000020CC0A00208F
:102E000010B5002000F025F810BD10B504461CB91F
:102E10000021A62000F07EF9012C03D10021A7207B
:102E200000F078F910BD10B504463CB90021C82067
:102E300000F070F90021A12000F06CF9012C07D1FD
:102E40000021C02000F066F90021A02000F062F906
:102E500010BD70B50646002419E004F1B001C8B2F7
:102E6000002100F057F90021084600F053F9002135
:102E7000102000F04FF9002505E00121304600F058
:102E800049F9681CC5B2822DF7DB601CC4B2082C5E
:102E9000E3DB70BD08B50121082000F0E3FE4FF42C
:102EA0007040ADF8000010208DF8030003208DF86D
:102EB000020069463D48FEF764FE4FF470413B480E
:102EC000FEF73DFF0021AE2000F024F90021084666
:102ED00000F020F90021102000F01CF90021402012
:102EE00000F018F90021812000F014F90021CF2012
:102EF00000F010F90021A12000F00CF90021C820F9
:102F000000F008F90021A62000F004F90021A82013
:102F100000F000F900213F2000F0FCF80021D32050
:102F200000F0F8F80021084600F0F4F80021D52060
:102F300000F0F0F80021802000F0ECF80021D9200A
:102F400000F0E8F80021F12000F0E4F80021DA2098
:102F500000F0E0F80021122000F0DCF80021DB2076
:102F600000F0D8F80021402000F0D4F80021202003
:102F700000F0D0F80021022000F0CCF800218D20D4
:102F800000F0C8F80021142000F0C4F80021A420AB
:102F900000F0C0F80021A62000F0BCF80021AF200E
:102FA00000F0B8F8FFF72CFF08BD0000000C01404E
:102FB0002DE9F047074688461646002584E030781C
:102FC000A02845DD00253CE0702F04DD002708F136
:102FD000020000F0FF0830783E4911F815108842D1
:102FE0002ED17078012101EB45013A4A515C8842AB
:102FF00026D14146384600F077F8002407E004EB7C
:103000004511354A505C012100F084F8641C102CF5
:10301000F5D308F10100C1B2384600F065F800248C
:1030200008E004EB451110312B4A505C012100F0FF
:1030300071F8641C102CF4D307F11000C7B204E03F
:103040006D1C264800688542BED300BFB61C3BE01D
:103050007A2F04DD002708F1020000F0FF08317824
:103060001F48FDF7C9F88146B9F1000F2BD0414642
:10307000384600F039F800240AE099F800102039A9
:1030800004EB0111174A505C012100F043F8641C65
:10309000082CF2D308F10100C1B2384600F024F840
:1030A00000240BE099F80010203904EB01110831DD
:1030B0000C4A505C012100F02DF8641C082CF1D35F
:1030C00007F10800C7B2761C307800287FF477AF8C
:1030D000BDE8F087D809002018060020780A0020F3
:1030E000150A00202800002070B504460D4605F1A1
:1030F000B001C8B2002100F00DF8102141EA14100F
:10310000002100F007F804F00F00002100F002F8A1
:1031100070BD000070B504460E462EB14FF400514C
:103120001C48FEF70CFE04E04FF400511948FEF76E
:1031300004FE4FF480511748FEF7FFFD00251BE009
:103140004FF400411348FEF7F8FD04F0800028B169
:103150004FF480410F48FEF7F2FD04E04FF4804148
:103160000C48FEF7EAFD4FF400410A48FEF7E7FD80
:103170006006040E681CC5B2082DE1DB4FF48051D7
:103180000448FEF7DCFD4FF400510248FEF7D7FD7E
:1031900070BD0000000C014030B58BB000200790DE
:1031A000089009900A900125354B364A36A13CA07B
:1031B00001F0FEFB07A8002102910391CDE9041064
:1031C00000912B022E4A01912E492FA0FEF7BCFF41
:1031D000002843D1089A91B20798FEF7D5FBFA2050
:1031E000FEF79AFA0446002C2FD02046FFF774FC15
:1031F00002282AD12046FFF740FB062820D2DFE82C
:1032000000F0030B0F13171B2DA001F0D1FB0025BD
:1032100000203049C87017E02FA001F0C9FB13E06F
:1032200034A001F0C5FB0FE03BA001F0C1FB0BE0B7
:1032300041A001F0BDFB07E048A001F0B9FB03E0AD
:1032400051A001F0B5FB00BF00BF2248C078401C70
:103250002049C87007A8FEF70FFE07E01D48C07898
:10326000401C1C49C8704FA001F0A2FB1948C0784F
:10327000022801DD00F088FE28460BB030BD0000BA
:10328000D06300088C630008736D617274646576A6
:10329000696365266839736A455A307277716600CA
:1032A00050524F49443A20257309415549463A2026
:1032B00025730944455649443A25730D0A00000018
:1032C000546970733A09C1ACBDD3B3C9B9A60D0A2C
:1032D00000000000282D00205741524E3A09C1AC91
:1032E000BDD3CAA7B0DCA3BAD0ADD2E9B4EDCEF35A
:1032F0000D0A00005741524E3A09C1ACBDD3CAA7CE
:10330000B0DCA3BAB7C7B7A8B5C4636C69656E74FF
:1033100069640D0A000000005741524E3A09C1ACE1
:10332000BDD3CAA7B0DCA3BAB7FECEF1C6F7CAA711
:10333000B0DC0D0A000000005741524E3A09C1AC02
:10334000BDD3CAA7B0DCA3BAD3C3BBA7C3FBBBF230
:10335000C3DCC2EBB4EDCEF30D0A00005741524E70
:103360003A09C1ACBDD3CAA7B0DCA3BAB7C7B7A8E6
:10337000C1B4BDD328B1C8C8E7746F6B656EB7C759
:10338000B7A8290D0A0000004552523A09C1ACBD48
:10339000D3CAA7B0DCA3BACEB4D6AAB4EDCEF30D8F
:1033A0000A0000005741524E3A094D5154545F50A3
:1033B00061636B6574436F6E6E656374204661690B
:1033C0006C65640D0A00000070B5C0B004464FF48F
:1033D00080716846FCF7E7FE3FA0008820806946C0
:1033E0002046FCF7EBFE4FF480716846FCF7DBFEED
:1033F0003AA1684601F0ECFA69462046FCF7DEFE89
:103400004FF480716846FCF7CEFE3EA1684601F09D
:10341000DFFA69462046FCF7D1FE4FF4807168461A
:10342000FCF7C1FE3AA1684601F0D2FA694620468F
:10343000FCF7C4FE4FF480716846FCF7B4FE3749D0
:103440008868FDF76BFA05462A460B4634A16846A4
:1034500001F0BEFA69462046FCF7B0FE4FF48071D9
:103460006846FCF7A0FE2D48028B31A1684601F0AA
:10347000AFFA69462046FCF7A1FE4FF4807168461A
:10348000FCF791FE2548C28A2CA1684601F0A0FAFB
:1034900069462046FCF792FE4FF480716846FCF7BF
:1034A00082FE29A1684601F093FA69462046FCF79E
:1034B00085FE4FF480716846FCF775FE22A16846D0
:1034C00001F086FA69462046FCF778FE2046FCF7B4
:1034D0009DFEC0B240B070BD7B000000226D6574DF
:1034E000686F64223A227468696E672E736572761B
:1034F0006963652E70726F70657274792E7365746E
:10350000222C0000226964223A2231222C00000081
:1035100022706172616D73223A7B0000282D0020B9
:103520002274656D70223A252E31662C0000000051
:10353000227068223A25642C00000000226D715F21
:1035400033223A25640000007D00000070B58CB085
:1035500006460020089009900A900B90079006906C
:10356000059004900024039000253046FFF7B4FA3C
:103570000446E01E0D2870D2DFE800F028707B932F
:10358000ADCDB5CDC1CDCDCD070004AB07AA06A901
:103590003046FFF72CF90546BDB9BDF810306BA0D9
:1035A000DDE9061201F004FA08AADDE90601FEF7DA
:1035B00085FD50B96EA001F0FBF9099A91B2089807
:1035C000FEF7E2F908A8FEF757FCA7E06E4803A94A
:1035D00004AA07ABCDE90021029005AA06A930464E
:1035E000FFF75AF90546002D36D1BDF810000090BE
:1035F000BDF8142065A0DDE9061301F0D9F99DF8A6
:103600000C00012802D0022824D111E008A95E484C
:103610000088FEF7BAFF50B96BA001F0C9F9099A0A
:1036200091B20898FEF7B0F908A8FEF725FC12E061
:1036300008A955480088FEF7F0FF50B968A001F0CE
:10364000B7F9099A91B20898FEF79EF908A8FEF713
:1036500013FC00E000BF00BF60E05CE03046FFF715
:10366000FBF910B964A001F0A3F93C206A49087085
:1036700054E03046FFF70EFA90B968A001F098F9CF
:1036800008A90A20FEF7EDFF50B96AA001F090F9F1
:10369000099A91B20898FEF777F908A8FEF7ECFBB3
:1036A0003CE0394801883046FFF703FA90B967A03B
:1036B00001F07EF908A90A20FEF78BFF50B969A036
:1036C00001F076F9099A91B20898FEF75DF908A819
:1036D000FEF7D2FB22E03046FFF7CDF910B968A023
:1036E00001F066F91AE03046FFF730FA18B96AA01F
:1036F00001F05EF902E06FA001F05AF90EE03046E9
:10370000FFF73EFA18B972A001F052F902E077A073
:1037100001F04EF902E04FF0FF3500BF00BFFDF7AA
:10372000EDFF681C08B90CB070BD079810B1079880
:1037300002F028F80F2C01D0032C05D1069801F0D7
:103740005BF9079801F058F900BFECE7636D646915
:10375000643A2025732C207265713A2025732C2041
:103760007265715F6C656E3A2025640D0A00000079
:10377000546970733A0953656E6420436D645265F1
:1037800073700D0A00000000CE0A0020746F70698B
:10379000633A2025732C20746F7069635F6C656ECB
:1037A0003A2025642C207061796C6F61643A202581
:1037B000732C207061796C6F61645F6C656E3A2068
:1037C00025640D0A00000000546970733A095365BE
:1037D0006E64205075626C69736841636B0D0A00FA
:1037E000546970733A0953656E64205075626C6950
:1037F00073685265630D0A00546970733A094D513C
:103800005454205075626C6973682053656E64204F
:103810004F4B0D0A00000000CC0A00205469707361
:103820003A09526576205075626C69736852656317
:103830000D0A0000546970733A0953656E64205094
:1038400075626C69736852656C0D0A005469707317
:103850003A09526576205075626C69736852656CDE
:103860000D0A0000546970733A0953656E64205064
:1038700075626C697368436F6D700D0A000000001B
:10388000546970733A09526576205075626C697399
:1038900068436F6D700D0A00546970733A094D5199
:1038A000545420537562736372696265204F4B0DE7
:1038B0000A000000546970733A094D515454205362
:1038C0007562736372696265204572720D0A000049
:1038D000546970733A094D51545420556E537562B2
:1038E000736372696265204F4B0D0A0054697073EF
:1038F0003A094D51545420556E5375627363726981
:103900006265204572720D0A0000000030B5C9B032
:103910000020459046904790489000254FF48071D4
:1039200005A8FCF740FC05A8FFF74EFD0446002C57
:1039300019D045A801210022CDE90012234605AA8D
:10394000CDE9021009A10A20FEF74EFD40B9469AC2
:1039500091B24598FEF718F845A8FEF78DFA02E0F7
:1039600010A001F025F849B030BD00002F73797325
:103970002F6839736A455A30727771662F736D619B
:1039800072746465766963652F7468696E672F6504
:1039900076656E742F70726F70657274792F706FA8
:1039A000737400005741524E0D0A000030B5C9B083
:1039B00004460020459046904790489000254FF4DB
:1039C000807105A8FCF7EFFB012C06D0022C09D072
:1039D000032C0CD0042C14D10EE005A8FEF772FACB
:1039E00005460FE005A8FFF719F905460AE005A806
:1039F000FFF7DCF8054605E005A8FFF7D7F8054610
:103A000000E000BF00BFCDB145A801210022CDE9F3
:103A100000122B4605AACDE9021009A10A20FEF7E3
:103A2000E3FC40B9469A91B24598FDF7ADFF45A831
:103A3000FEF722FA02E00AA000F0BAFF49B030BD5A
:103A40002F62726F6164636173742F6839736A45A2
:103A50005A30727771662F746573743200000000FB
:103A60005741524E0D0A0000F0B585B004460D4690
:103A700000260020019002900390049006E054F884
:103A800026101FA000F094FF701CC6B2AE42F6DBF9
:103A900001A82B462246022100901420FEF705FEC5
:103AA00000282BD1029A91B20198FDF76DFF4FF4D7
:103AB000FA70FDF731FE07463846FFF70DF8092882
:103AC0000AD115A000F074FF01A8FEF7D5F9002077
:103AD0001849C87005B0F0BD17A000F069FF01A833
:103AE000FEF7CAF91348C078401CC0B21149C8702B
:103AF000022801DD00F048FA0120EBE70120E9E7A8
:103B000053756273637269626520546F7069633ABA
:103B10002025730D0A000000546970733A094D5155
:103B2000545420537562736372696265204F4B0D64
:103B30000A000000282D0020546970733A094D5185
:103B400054542053756273637269626520457272C2
:103B50000D0A00002DE9F04722494888FCF795FE40
:103B600081464FF08B41FCF739FD8046FCF7D6FECD
:103B700006464FF066321C4BFCF715FE0446FCF778
:103B800011FF1A49086008460068FCF7C7FE804626
:103B9000174A184BFCF707FE0646174A174BFCF767
:103BA0005BFD0446FCF7FEFE82465046FCF7B6FE7F
:103BB000044600221346FCF7C5FE01D84FF0000A68
:103BC0005046FCF7ABFE044600220D4BFCF7D2FE3C
:103BD00001D8DFF830A05046FCF76DFE80B2BDE89A
:103BE000F0870000840A002066660A40880A0020E8
:103BF00087A757CA320417C08195438B6CA7304002
:103C000000002C4000006041704700000146002089
:103C1000034A506820F44040084350607047000059
:103C20000010024029B1064A52690243044B5A610E
:103C300004E0034A52698243014B5A617047000015
:103C40000010024029B1064AD2690243044BDA61EE
:103C500004E0034AD2698243014BDA6170470000F5
:103C60000010024029B1064A92690243044B9A614E
:103C700004E0034A92698243014B9A617047000055
:103C80000010024030B500210022002400232D4DF9
:103C90006D6805F00C0121B1042905D0082923D154
:103CA00005E0294D056022E0274D05601FE0254D08
:103CB0006D6805F47012234D6D6805F4803402259B
:103CC00005EB92421CB9214D554305600BE01D4D9B
:103CD0006D6805F400351DB11C4D5543056002E0CB
:103CE000194D5543056002E0174D056000BF00BF48
:103CF000144D6D6805F0F0010909154D6B5C056800
:103D0000DD4045600F4D6D6805F4E061090A104D16
:103D10006B5C4568DD4085600A4D6D6805F4605157
:103D2000C90A0B4D6B5C4568DD40C560054D6D688B
:103D300005F44041890B074D6B5CC568B5FBF3F595
:103D4000056130BD0010024000127A0000093D00FC
:103D50009E0A0020AE0A002008B501210820FFF7C6
:103D600081FF8020ADF8000010208DF803000320B3
:103D70008DF8020069460848FDF703FF4FF4807094
:103D8000ADF8000069460448FDF7FBFE4FF4807172
:103D90000148FDF7D2FF08BD000C014000B502222A
:103DA00006490748006800F04DF902220349891CC2
:103DB0000448006800F046F900BD0000D00A002069
:103DC0007C0A0020800A002010B504460C48FDF74C
:103DD00063FB0C49C860C8684FF07E51FCF7FEFDDC
:103DE00003D20848C06807498860FEF7D5FEE08224
:103DF0000548006810B9FFF7ADFE2083012010BD13
:103E00008C0A0020282D00201C81214270B5044618
:103E10000D46FFF7C3FF012070BD704710B500F0DD
:103E200001F810BD0CB500200190009033480068E7
:103E300040F480303149086000BF3048006800F429
:103E4000003000900198401C0190009818B901982A
:103E5000B0F5A06FF1D12948006800F4003010B12E
:103E60000120009001E0002000900098012843D13B
:103E70002348006840F010002149086008460068A7
:103E800020F0030008600846006840F00200086067
:103E90001A48406819494860084640684860084622
:103EA000406840F4806048600846406820F47C1018
:103EB00048600846406840F4E810486008460068DA
:103EC00040F08070086000BF0C48006800F000708F
:103ED0000028F9D00948406820F0030007494860ED
:103EE0000846406840F00200486000BF0348406850
:103EF00000F00C000828F9D10CBD000000100240B1
:103F00000020024010B501234FF47A720D490E488B
:103F100002F004F9012364220C490D4802F0FEF876
:103F2000012340F6B8320B490B4802F0F7F8064877
:103F300002F024F9064802F021F9074802F01EF9C0
:103F400010BD0000D95F0008FC120020E15F0008EE
:103F50000C130020016100081C130020042808D164
:103F60004FF0E021096941F004014FF0E0221161B6
:103F700007E04FF0E021096921F004014FF0E02251
:103F80001161704770470000012080F3138800BF63
:103F900000BF0748006800F4E06006490843001DC0
:103FA00003490860BFF34F8F00BF00BFFEE700006A
:103FB0000CED00E00000FA0510B51348006840F071
:103FC00001001149086008464068104908400E4940
:103FD0004860084600680E4908400B4908600846DA
:103FE000006820F4802008600846406820F4FE0045
:103FF00048604FF41F008860FFF710FF4FF000602B
:104000000449086010BD0000001002400000FFF8E5
:10401000FFFFF6FE08ED00E010B501210820FFF7D4
:1040200021FE01210846FFF71DFE01210348FDF78F
:1040300033FE01210248FDF72FFE10BD00043000C1
:104040000002300030B503460D480488B3F1006F1C
:1040500001D2012030BD4FF0006000EB8420984277
:1040600001D20220F6E703E018780870491C5B1CB7
:10407000101EA2F10105AAB2F6D100BFEAE70000C6
:10408000E0F7FF1F2DE9F84F80468946164656484F
:10409000B0F800A0A8F1006B4FEADB25CBF30A00D3
:1040A00000900098C0F50067B8F1006F02D20120BF
:1040B000BDE8F88F4FF0006000EB8A20404501D248
:1040C0000120F5E749484A4948604A484860BE42ED
:1040D00000DC37467DE0484802F016F908B10220BE
:1040E000E6E74FF0006101EBC5200A144349FFF7F2
:1040F000A9FF414802F008F908B10220D8E73C487E
:10410000006940F002003A4908614FF0006000EB9E
:10411000C52048610846006940F040000861364803
:1041200002F0F2F808B10220C2E73148006941F616
:10413000FD7108402E490861002007E019F80020B1
:10414000009901442D4B5A54411C88B2B842F5DB0A
:1041500000242AE0284802F0D7F808B10220A7E797
:104160002348006940F0010021490861234810F804
:104170001400012101EB4401204A515C40EA012076
:104180004FF0006101EBC52121F814001A4802F03C
:10419000BBF808B102208BE71548006941F6FE71B3
:1041A000084013490861601C84B2B4F5806FD1DB0C
:1041B000B74200D10EE0B9446D1C00200090F01B06
:1041C00086B2B6F5006F02DD4FF4006000E03046C5
:1041D000074680E700BF0648006940F080000449B8
:1041E0000861002064E70000E0F7FF1F2301674536
:1041F00000200240AB89EFCD888888005E13002044
:1042000010B50121274800F06BF8002849D0264856
:104210000068401C2449086001F0D8FF224800686B
:104220001921B0FBF1F201FB120008B9FCF7C8FF3D
:104230001D4800680A21B0FBF1F201FB1200B8B979
:104240001A480068401C194908601948007878B974
:1042500018480088002804DD16480088401C1549CD
:104260000880144800880A2802DD012010490870DF
:104270000D4800684FF47A71B0FBF1F201FB1200B7
:1042800058B90020084908600B480078002804DD70
:1042900009480078401E084908700121014800F0D3
:1042A00010F810BD00080040E40A0020EC0A0020CD
:1042B000F00A0020E80A0020CC0A0020CA4302824B
:1042C0007047CA430282704721B1028842F001025E
:1042D000028004E002884FF6FE731A4002807047A5
:1042E00030B50246002000230024158A05EA0103A8
:1042F000958905EA010413B10CB1012000E000200A
:1043000030BD1AB183890B43838102E083898B43DB
:1043100083817047002202881D4B98420ED01D4BAE
:1043200098420BD0B0F1804F08D01B4B984205D07B
:104330001A4B984202D01A4B984204D14FF68F7311
:104340001A404B881A43174B984207D0164B984295
:1043500004D04FF6FF431A40CB881A4302808B8863
:1043600083850B8803850A4B98420BD0094B9842F2
:1043700008D00E4B984205D00D4B984202D00D4B01
:10438000984201D10B7A0386012383827047000093
:10439000002C0140003401400004004000080040AF
:1043A000000C00400010004000140040004001409C
:1043B00000440140004801400146022901D1024861
:1043C00000BF00BF704700000008004010B540F279
:1043D00025511D4800F086F810B31B4800F03EF947
:1043E000C4B21A48008800F40040C8B917480088D1
:1043F00000F4804060B10A2C03D0002013490880EB
:1044000020E01248008840F400401049088019E07C
:104410000D2C06D10D48008840F480400B490880DF
:1044200010E00A480088C0F30D0009490C54074801
:104430000088401C0549088008460088C72801DD1F
:104440000020088010BD0000003801409C0A0020B8
:104450005E1B002010B540F225510E4800F042F8D6
:10446000B0B10D480088FF2802D900200A49088011
:104470000848001D0088C1B2074802880088401C17
:10448000054B1880054881542021024800F008F8A7
:1044900010BD000000480040B20A00202624002081
:1044A00001F40072B2F5007F00D100BFCA43028060
:1044B000704721B1828942F40052828104E08289EE
:1044C0004DF6FF731A408281704702460020B1F515
:1044D000007F00D100BF13880B400BB1012000E02A
:1044E0000020704770B502460024002300250020FC
:1044F00040F66A16B14200D100BFC1F3421501F087
:104500001F03012606FA03F3012D02D196893340D9
:1045100006E0022D02D1168A334001E0968A33402C
:104520000C12012606FA04F41688344013B10CB1BB
:10453000012000E0002070BDF0B5034600240026F5
:104540000025002040F66A17B94200D100BF184686
:10455000C1F3421401F01F06012707FA06F5012CEA
:1045600001D10C3004E0022C01D1103000E01430F5
:104570001AB107682F43076002E00768AF4307607E
:10458000F0BD00002DE9F04786B005460E46002438
:10459000A24600BFA1460027B08900B100BF2F4648
:1045A0002C8A4CF6FF700440F08804432C82AC89BE
:1045B0004EF6F3100440B0883189084371890843EE
:1045C0000443AC81AC8A4FF6FF400440B0890443F9
:1045D000AC8201A8FFF756FB1F48874202D1DDF8E5
:1045E00010A001E0DDF80CA0A88900F4004040B163
:1045F0000AEBCA0000EB0A1031684900B0FBF1F881
:1046000007E00AEBCA0000EB0A1031688900B0FB32
:10461000F1F86420B8FBF0F004012009642101FBEB
:104620001089A88900F4004040B1322000EBC90095
:10463000B0FBF1F000F00700044308E0322000EB8B
:1046400009106421B0FBF1F000F00F0004432C814D
:1046500006B0BDE8F08700000038014001468888B8
:10466000C0F308007047C1F3080282807047000061
:1046700010B508212248FDF757FB01280BD021482F
:10468000C08A21494988884205DC1E48008B1E49A2
:10469000098888420CDD1D480068C0431C49C1F8E8
:1046A000A0011C48407830B905201A49487002E042
:1046B00000201649086017484078022804DD0120D0
:1046C0001249091F086003E000201049091F086013
:1046D0000C48007888B10B480078012802D00228E5
:1046E00007D103E00120FFF761F902E0FFF70EF9BF
:1046F00000BF00BF002003490870012010BD00006A
:1047000000080140282D0020D00A0020A08121426D
:1047100000802142D60A002030B58DB020480068C4
:10472000002825D11F48028B1FA1684600F050F9D0
:104730006A4600210846FEF73BFC1A48C28A1EA1C1
:10474000684600F045F96A4602210020FEF730FC79
:1047500014498868FCF7E2F8044622460B461AA181
:10476000684600F035F96A4604210020FEF720FC77
:1047700008211948FDF7D8FA012804D117A1684685
:1047800000F026F903E01AA1684600F021F96A4614
:1047900006210020FEF70CFC01200DB030BD00000A
:1047A0001C812142282D002050483A2025303364B6
:1047B0002020202000000000C5A8B6C83A202530DF
:1047C0003264202070706D00CEC2B6C83A20252E0B
:1047D000326620432020200000080140B5CDD3DA06
:1047E000D7EEB5CDCBAECEBB2021212000000000FE
:1047F000CBAECEBBD5FDB3A320202020202020208F
:104800000000000000BFFEE710B586B0044601219D
:1048100044F20400FFF726FA4FF40070ADF81400DC
:1048200003208DF8160018208DF8170005A91C48E4
:10483000FDF7A7F94FF48060ADF8140004208DF85F
:10484000170005A91648FDF79CF925208DF80000F2
:1048500003208DF801008DF8020001208DF803007F
:104860006846FEF711FA01940020ADF80800ADF893
:104870000A00ADF80C00ADF810000C20ADF80E00E9
:1048800001A90848FFF77EFE012240F225510548A4
:10489000FFF752FE01210348FFF70BFE06B010BDE3
:1048A000000801400038014010B586B004460121DF
:1048B0000820FFF7D7F901218804FFF7C3F9182072
:1048C0008DF817004FF48060ADF8140003208DF8C8
:1048D000160005A91D48FDF754F904208DF81700AE
:1048E0004002ADF8140003208DF8160005A9174802
:1048F000FDF747F901940020ADF810000C20ADF849
:104900000E000020ADF80C00ADF80A00ADF808006C
:1049100001A90F48FFF736FE01210D48FFF7C9FD39
:10492000012240F225510A48FFF706FE27208DF8A4
:10493000000001208DF803008DF801008DF80200C1
:104940006846FEF7A1F906B010BD0000000C01405A
:104950000048004070B504460D4600260DE014F8EE
:10496000011B0748FFF77FFE00BF40210448FFF707
:10497000ACFD0028F9D0701C86B2AE42EFDB70BDF2
:104980000048004010B50222064907480068FFF7BA
:1049900079FB02220349891C04480068FFF772FB77
:1049A00010BD0000D00A00207C0A0020800A0020F0
:1049B0000FB4054B10B503A9044A029800F04CF956
:1049C00010BC5DF814FB00008D560008980A00200A
:1049D0000FB4084B10B504A902AA039800F03CF9E3
:1049E000044602A9002000F0CEFC204610BC5DF871
:1049F00014FB00008753000830B528B1144C031F86
:104A0000002021680A4605E0084630BD9A4203D8D6
:104A100010465268002AF9D1002800D041680BD016
:104A20000468A3EB0005A54204D11B681C4403469F
:104A3000046002E0436000E023603AB11C68D51ACC
:104A4000A54203D115682C441C6052685A6030BDE1
:104A5000F40A00202DE9F04782460F4C10480D4E15
:104A60000E4F001B4FF0000820F007054FF0010922
:104A700000221146504600F043FE002802D1306863
:104A800010B10020BDE8F0873C60C4E90058C6F8CA
:104A90000090EDE7F80A00204C2D0020F40A0020D9
:104AA0004839002002E008C8121F08C1002AFAD1C4
:104AB00070477047002001E001C1121F002AFBD19E
:104AC000704700002DE9FF5F82B00021DDE904306E
:104AD000020DDDF840B0034318D044F61050A2F2A6
:104AE000FF3242431514119801281FD0A5EB0B008B
:104AF000401C5FEA000A4FF000064E4FDFF8389185
:104B0000B046504615D5CAF1000413E011980124AF
:104B10004AA3012801D16FEA0B010298119AC0E95A
:104B20000031C0E9024206B0BDE8F09FCBF10000C1
:104B3000DFE704460021404A491842EB0450CDE922
:104B4000001012E0E00707D032463B464046494697
:104B5000FBF729FE8046894632463B4610461946F9
:104B6000FBF721FE06460F466410002CEAD1DDE972
:104B70000401DDE90023BAF1000F06DAFBF713FEAA
:104B800042464B46FBF70FFE05E0FCF7ABF842460A
:104B90004B46FCF7A7F804460E460022284BFBF7CD
:104BA000E9FE03D84FF0FF30014607E00022254B15
:104BB00020463146FBF750FDFCF70FF9102409E0C1
:104BC000002C0ADB0A220023FBF728FF039B30326C
:104BD0001A55641E50EA0102F2D1641C039AC4F112
:104BE00011031444119A012A03D0012208430DD164
:104BF0000AE0084304D000204FF0110B119072E737
:104C0000A3EB0B056D1E0DE05B4504DD4FF00002CC
:104C100005F1010504E003DA4FF00002A5F10105FA
:104C2000002AECD002981199C0E90231C0E9004590
:104C300079E70000000014400000F03F3000000061
:104C40000000F0430000E03F30380A2801D2012084
:104C500070470020704700002DE9FF4F95B09B463C
:104C60008946064600250FE2252877D100242746ED
:104C7000F84A0121059400E0044316F8013F203B67
:104C800001FA03F01042F7D130782A2811D06FF0E2
:104C90002F033078A0F13002092A16D8059A44F083
:104CA000020402EB820203EB42021044761C0590E0
:104CB000EFE759F8042B0592002A03DA504244F436
:104CC0000054059044F00204761C30782E2816D14A
:104CD00016F8010F44F004042A280DD06FF02F02BB
:104CE0003078A0F13003092B09D807EB870302EBDA
:104CF0004303C718761CF3E759F8047B761C307819
:104D00006C280FD006DC4C2817D068280DD06A28F4
:104D100014D104E0742810D07A280FD10DE044F4A7
:104D200000140AE044F4801401E044F44014727862
:104D3000824202D104F58014761C761C30786628F5
:104D40000BD013DC582877D009DC002875D0452813
:104D5000F6D04628F4D047281AD19DE118E0632800
:104D600035D0642879D0652812D195E1702873D0A8
:104D700008DC6728F1D069286FD06E280DD06F2825
:104D800006D1B5E073282CD0752875D0782874D05A
:104D90005A46179990476D1C75E1C4F302500228DA
:104DA00009D003280DD0D9F8001004280DD00D60CB
:104DB00009F1040967E1D9F80010EA17C1E90052C6
:104DC000F6E7D9F800100D80F2E70D70F0E719F85A
:104DD000041B8DF8001000208DF80100EA46012028
:104DE00003E059F804AB4FF0FF3061074FF00001CA
:104DF00002D40DE008F101018846B9420FDA80457E
:104E0000F8DB1AF808100029F4D108E008F10101D4
:104E100088468142FADB1AF808100029F6D1059875
:104E20005B46A0EB080721463846179A00F094FA33
:104E3000284400EB080507E04DE029E10DE01AF8F1
:104E4000010B5A4617999047B8F10108F7D25B4613
:104E500021463846179A13E142E00A220092C4F331
:104E600002524FF0000A022A08D059F804CB032A54
:104E70004FEAEC710AD00DE029E02AE009F10701C0
:104E800021F00702F2E802C1914609E00FFA8CFC1A
:104E90004FEAEC71042A03D14FFA8CFC4FEAEC7113
:104EA000002907DA0A460021DCF1000C61EB02015F
:104EB0002D2202E0220504D52B228DF804200122A8
:104EC00003E0E20701D02022F7E7904659E00A21EB
:104ED00002E010220DE010214FF0000A00910BE0DB
:104EE00010224FF0000A44F004040827009203E067
:104EF00008224FF0000A0092C4F30252022A05D0A1
:104F000059F804CB0021032A08D009E009F1070170
:104F100021F00702F2E802C1914605E01FFA8CFC7D
:104F2000042A01D10CF0FF0C4FF00008220728D50D
:104F3000702806D0009B83F0100353EA0A0305D0C3
:104F40000EE040228DF80420012208E05CEA010214
:104F500006D030228DF804208DF8050002229046FC
:104F6000009B83F0080353EA0A030AD15CEA0102BA
:104F700001D1620705D530228DF804204FF00108D9
:104F80007F1E582804D034A003900EA802900DE094
:104F900036A0F9E753466046009AFBF73FFD84468A
:104FA0000398825C0298401E029002705CEA010045
:104FB000F0D1029806A9081A00F1200A600702D56C
:104FC00024F4803400E00127574502DDA7EB0A00F6
:104FD00000E0002000EB0A01009005984144401ACF
:104FE0000590E00306D45B462146179A059800F029
:104FF000B3F90544002706E001A85A46C05D179999
:1050000090476D1C7F1C4745F6DBE0030CD55B46E3
:105010002146179A059800F09FF9054404E03020D6
:105020005A46179990476D1C0099481E0090002918
:10503000F5DC08E0029802995A460078491C029172
:10504000179990476D1CBAF10001AAF1010AF1DC31
:1050500065E100000928010030313233343536373C
:1050600038396162636465660000000030313233B4
:105070003435363738394142434445460000000054
:1050800000F058F90544761C307800287FF4ECAD28
:1050900019B02846BDE8F08F620700D4062709F151
:1050A000070222F0070CFCE80223E14603F0004867
:1050B0005FEA080C02D00FF2702C0DE05FEA045C8E
:1050C00002D50FF2682C07E05FEAC47C02D00FF231
:1050D000602C01E0AFF2700C4FF0FF3823F000437A
:1050E000CDF850C065280CD006DC452809D04628EC
:1050F0001DD047283DD13DE0662818D067287ED1D5
:1051000038E00021112F01DB112000E0781CCDE9EF
:10511000000106A90EA8FFF7D5FCDDE90F010E9AE4
:1051200003910021009207F1010A04914DE04FF034
:1051300000400097CDE9011006A90EA8FFF7C2FCB8
:10514000DDE90F0203920E9B11990022DDF80CA0FD
:105150000093049211B9791C00EB010AB7EB0A0025
:1051600004D4C0F1FF3007F1010A0490AAEB070054
:10517000019044E0012F00DA01270021112F01DD09
:10518000112000E03846CDE9000106A90EA8FFF77E
:1051900099FCDDE90F010E9A039100210491009220
:1051A000BA4621070CD40399514500DA8A46BAF170
:1051B000010F05DD009AAAF10101515C302908D0E8
:1051C000B84202DA10F1040F06DA0121CDE901102C
:1051D00015E0AAF10101E9E7002805DC0499014482
:1051E0000491AAEB000102E0411C514500DD8A4612
:1051F0000499401A401C01904FF000400290200793
:1052000004D40198504501DBCDF8048000208DF8CE
:105210004F0002980DF14F07B0F1004F25D02B2021
:105220000E9002984FF0020800280CDA40420290DB
:105230002D200E9007E00A210298FBF7D9FB3031B0
:10524000029007F8011DB8F10001A8F10108F2DC95
:1052500002980028EFD1791E0E980870307800F07F
:10526000200040F0450007F8020D12A8C01B00F115
:1052700007081498007800B1012000EB0A0101989A
:1052800001EBE07105984144401A401E0590E0038F
:1052900006D45B462146179A059800F05DF8054450
:1052A0001498007818B15A46179990476D1CE0037E
:1052B00024D55B462146179A059800F04DF8054421
:1052C0001CE00498002807DBDDE90301884203DDC8
:1052D0000098405C179901E0179930205A46904792
:1052E000049805F10105401C04900198401E0190AE
:1052F00004D12E205A46179990476D1CBAF100012F
:10530000AAF1010ADDDC05E017F8010B5A461799EE
:1053100090476D1CB8F10001A8F10108F4DC5B4670
:105320002146179A0598ABE62D0000002B000000DF
:10533000200000002DE9F041044600251E461746D6
:10534000880404D405E039462020B0476D1C641E53
:10535000F9D52846BDE8F0812DE9F0410446002545
:105360001E469046C80301D5302700E02027880458
:1053700004D505E041463846B0476D1C641EF9D59A
:105380002846BDE8F0810A68531C0B601070704716
:10539000014609B1086808B90020704719B1D1E980
:1053A0000120904201D30846F7E702E08868401CDC
:1053B000886041B1D1E90120904204D28A6808682E
:1053C000805C2028F2DDD1E90120904202D188687A
:1053D000401E88600846E0E770B50446002522E0DC
:1053E0002568A08900F4807020B9A06810B1A06879
:1053F000FFF7F2FFA08900F4807028B9206918B186
:105400000A4A206951688847A08900F4007028B9C9
:10541000206A18B1054A206A5168884703484168E4
:10542000204688472C46002CDAD170BDC00A0020E7
:1054300070B504460D4600222946204600F036F994
:1054400070BD70B5044628202168884705461DB107
:1054500028212846FAF7A7FE284670BD10B5044655
:1054600000221146204600F06BF810BD2DE9F047F0
:105470008AB004460E46154698461C2103A8FAF742
:1054800092FE002700202C490860486004B106B94C
:1054900032E00394049600200590284A07CA07AB1F
:1054A00007C32648FFF7CDFF074607B924E003A846
:1054B00000F066FD8246FFF76BFF8146494638469D
:1054C00000F08AFC00B917E0B8F1000F0BD003A878
:1054D000FFF75EFFDDE90410884203D205990398C7
:1054E000405C00B108E01DB10599039808442860AC
:1054F00038460AB0BDE8F08717B13846FFF76CFFB1
:10550000C4B1019400200290DDE90410884202D267
:105510000598029004E0049810B10498401E02908F
:105520001DB1DDE90101084428600348DDE90112ED
:1055300006C000BF0020DCE7B80A0020C00A002037
:105540002DE9F04104460D46164614B90020BDE889
:10555000F0812046FAF75AFE471C33462A46394660
:105560002046FFF783FFF2E770B504460D4604B10D
:105570000DB9012070BDAC4201D10020FAE705E071
:10558000207808B90020F5E7641C6D1C2078FAF734
:10559000EBFD06462878FAF7E7FD8642F0D0207842
:1055A000FAF7E2FD06462878FAF7DEFD301AE1E761
:1055B00010B56FF00400FEF7D1FC0A4800680A49F4
:1055C000B0FBF1F0094908700846007800EB400193
:1055D000C1EBC0104FF6FF7101EAC000044908801A
:1055E00010BD00001000002000127A00940A002074
:1055F000960A00200146114A12884A434FF0E023E0
:105600005A6100229A611A46126942F001021A6137
:1056100000BF4FF0E022106900F001021AB100F45F
:105620008032002AF5D04FF0E022126922F0010208
:105630004FF0E0231A6100229A617047960A002019
:105640000146114A12784A434FF0E0235A61002282
:105650009A611A46126942F001021A6100BF4FF0C6
:10566000E022106900F001021AB100F48032002A31
:10567000F5D04FF0E022126922F001024FF0E02352
:105680001A6100229A617047940A002000BF054AFF
:10569000128802F04002002AF9D0C2B2014B1B1D51
:1056A0001A807047003801402E2070472DE9F041E4
:1056B00005460E461746002405B116B90020BDE880
:1056C000F081AC685FB100E024688CB1206A78B1E9
:1056D0003046216AFAF7A1FD0028F5D108E000E084
:1056E00024682CB13046216AFFF73EFF0028F7D12D
:1056F0000CB1206A08B90020E1E72046DFE700008E
:105700002DE9F0410B3020F00706104D19E020681C
:10571000B04215D3B0420AD9871B201DD4F80480AB
:10572000FAF728FDA019C0E90078286004E0606855
:105730002860201DFAF71EFD201D2660BDE8F081BF
:10574000251D2C68002CE2D10020F7E7F40A002088
:105750000024FEF7D7FBFCF7F7FAFDF7D7FA012193
:105760000748FEF7B1FD09E000F0E8FC0020FBF778
:10577000D3FF044614B12046FDF7E8FEF4E700002D
:105780000008004070B5064600243046FFF766FE6C
:10579000044624B92BA0FFF70BF9002070BD2DA102
:1057A0002046FFF745FE057D012D06D0022D18D0BD
:1057B000032D2AD0042D3DD13BE027A12046FFF741
:1057C00037FE007D264908750846007D10B9012086
:1057D000087502E000202249087501202049087060
:1057E00029E020A12046FFF723FE007D1E49087016
:1057F0000846007810B90120087002E000201A491C
:10580000087001201649087015E018A12046FFF71E
:105810000FFE808A1749488017A12046FFF708FE2F
:10582000808A14490880FFF7ADF801200C49087000
:1058300001E000E000BF00BF2046FFF7CDFD0120E2
:10584000ACE700007061727365206661696C2E0AB6
:1058500000000000636D6400666C61676500000015
:10586000282D002066616E00D60A00206D715F331E
:105870005F760000D00A002070685F7600000000AC
:105880002DE9F04180460C4600250027E068B0F580
:105890007A7F02D30020BDE8F081E068401CE06020
:1058A000A1682068405C5B2800D05FE0A068401CD5
:1058B000A0602046FFF76CFD4CB1D4E9011088428E
:1058C00005D2A1682068405C5D2800D13FE01CB192
:1058D000D4E90110884203D3A068401EA06045E0CF
:1058E000A068401EA06000BF04F11000FFF7A9FDF2
:1058F000064606B93AE015B93546374602E03E603D
:1059000077603746A068401CA0602046FFF740FD46
:105910002146384600F060FA00B927E02046FFF73C
:1059200037FD44B1D4E90110884204D2A16820684F
:10593000405C2C28D8D044B1D4E90110884204D26C
:10594000A1682068405C5D2800D00FE000BFE068DF
:10595000401EE06005B16F602020C8F80C00C8F858
:105960000850A068401CA060012094E715B12846AB
:10597000FFF732FD00208EE702460023002100BF22
:1059800023E0505C302806DB505C392803DC505C97
:105990003038034415E0505C412806DB505C462853
:1059A00003DC505C373803440BE0505C612806DBB5
:1059B000505C662803DC505C5738034401E000204B
:1059C0007047032900D21B01491C0429D9D318466A
:1059D000F6E700002DE9F04391B080460C4600BF89
:1059E00000201090FFF760FE814600250CB1206872
:1059F00018B9002011B0BDE8F08300253CE0A16893
:105A000020680844405D342820D00ADCA0F12B0037
:105A100009282ED2DFE800F0202D212A2D16171894
:105A20001900382816D006DC352810D036280FD0BB
:105A300037281ED10DE039280DD045280FD0652814
:105A400017D10BE000BF00BF00BF00BF00BF00BF09
:105A500000BF00BF00BF00BF00BF00BF00BFA16804
:105A600020680844405D0DF8050003E00DF805903E
:105A700000E00AE000BF6D1C3F2D05D224B1A068F4
:105A8000284461688842BAD300BF00200DF80500A1
:105A900010A9684600F092FA06460F46684610992B
:105AA000884201D10020A5E7C8E90667144A154BD2
:105AB00030463946FAF75EFF04D86FF00040C8F868
:105AC000140011E00022104B30463946FAF73AFF35
:105AD00004D84FF00040C8F8140005E030463946BD
